:020000040800F2
:1000000078080020A1010008292700087F250008A2
:1000100025270008370D0008612C000800000000AB
:10002000000000000000000000000000ED280008B3
:100030003B0D0008000000002D270008EF280008F5
:10004000BB010008BB010008BB010008BB010008A0
:10005000BB010008BB010008BB0100083D0D000802
:10006000BB010008BB010008BB010008BB01000880
:10007000BB010008BB010008BB010008BB01000870
:10008000BB010008BB010008BB010008BB01000860
:10009000BB010008BB010008BB010008BB01000850
:1000A000BB01000861290008BB010008BB01000872
:1000B000BB010008BB010008BB010008BB01000830
:1000C000BB010008BB010008BB010008BB01000820
:1000D000BB010008BB010008BB010008BB01000810
:1000E000BB010008BB010008BB01000800F002F8DA
:1000F00000F047F80AA090E8000C82448344AAF17B
:100100000107DA4501D100F03CF8AFF2090EBAE878
:100110000F0013F0010F18BFFB1A43F0010318473B
:10012000482C0000682C0000103A24BF78C878C121
:10013000FAD8520724BF30C830C144BF04680C60ED
:10014000704700000023002400250026103A28BF35
:1001500078C1FBD8520728BF30C148BF0B60704739
:10016000642900F07D80002070471FB59DE80300E2
:1001700000F070FB00F062F91FBD10B500F0C7F988
:1001800010BD00F02AFA1146FFF7EFFF02F0A8FDBC
:1001900000F02EFB03B4FFF7F0FF03BC00F0ECFC13
:1001A0000948804709480047FEE7FEE7FEE7FEE70B
:1001B000FEE7FEE7FEE7FEE7FEE7FEE70448054947
:1001C000054A064B704700005D290008ED00000855
:1001D00078020020780800207804002078040020AD
:1001E0000FB4044910B503AA029800F0F9F810BC46
:1001F0005DF814FB700100202DE9F0410E46044625
:10020000002020622046E168884730B3252805D0C9
:10021000D4E901219047206A401CF2E7E1682046BA
:1002200000278847050018D0A5F14100192802D8F9
:1002300020354FF400673246294620462760FFF7F5
:100240008FFF40B1012804D0F61D26F007060836BE
:10025000D8E7361DD6E72846DAE7206ABDE8F08100
:100260002DE9F0410646002410687529314616A58F
:1002700010D0AFF30080002802DA404213A507E057
:1002800031688A0701D512A502E0490704D511A5F6
:10029000012401E0AFF3008000210A2206F12407C7
:1002A00009E0B0FBF2FCB0FBF2F302FB1C003030C3
:1002B00078541846491C0028F3D123462A46304674
:1002C000BDE8F04100F032B8000000002D00000051
:1002D0002B000000200000004FF0000200B5134684
:1002E00094469646203922BFA0E80C50A0E80C5056
:1002F000B1F12001BFF4F7AF090728BFA0E80C5007
:1003000048BF0CC05DF804EB890028BF40F8042BFF
:1003100008BF704748BF20F8022B11F0804F18BF6C
:1003200000F8012B70477047704770472DE9F04780
:100330000D4699469246044600F124080168880655
:1003400004D5E06921F01001216000E00120A842FD
:1003500001DD471B00E00027A1697A1902EB0900C3
:10036000081AA0612078C00602D42046AFF30080AE
:10037000002608E0D4E901211AF806009047206A17
:10038000401C761C20624E45F4DB2078C0060AD55E
:100390002046AFF3008006E0D4E9012130209047E9
:1003A000206A401C2062381EA7F10107F4DC07E038
:1003B000D4E9012118F805009047206A401C20620A
:1003C000281EA5F10105F3DC2046AFF3008020785C
:1003D000000602D50220BDE8F0870120FBE70000FF
:1003E000074B70B50D467B4400F011F804462846D3
:1003F00000F020F810B14FF0FF3070BD204670BD06
:10040000CB28000001694A1C02610878704700B5DA
:100410008FB0CDE901310021059105497944CDE93D
:10042000031011466846FFF7E7FE0FB000BD00005D
:10043000E5FFFFFF007B00F08000704710B54248E9
:100440005421FFF749FF41485421FFF745FF404839
:100450005421FFF741FF3F493B483C4A3F4B08606E
:100460003D490A603A491960531C0365481C1065F0
:10047000012008653B48344A39A1784400F01CF952
:1004800020B9384878440A3800F0BBF937482F4A79
:1004900035A1784400F010F920B9344878440A387E
:1004A00000F0AFF932482A4A2FA1784400F004F94D
:1004B00020B92F4878440A3800F0A3F94023224895
:1004C000DC000021224600F0D4F820B12548784411
:1004D000543800F096F91D4822464023002100F0D0
:1004E000C8F820B121487844543800F08AF91848F7
:1004F00022461023002100F0BCF8002806D01C483A
:100500007844BDE81040563800F07BB910BD104863
:1005100070B5006D20F001040B4800F043F90B4862
:1005200000F040F90A4800F03DF909E0206D20F0A4
:100530000105204600F036F9204600F073F82C46FD
:10054000002CF3D170BD00001C01002070010020C0
:10055000C4010020280000202C00002030000020D2
:1005600072000000DC28000077000000C8280000AE
:10057000B42800000EB5CDE9000100F0DDFA0290CC
:1005800069460120ABBE0EBD08B569460090022049
:10059000ABBE08BD1FB58DE8070069460520ABBEA0
:1005A00004B010BD1FB58DE80F0069460620ABBE34
:1005B000F6E708B5694600900920ABBE08BD1CB53A
:1005C000CDE9000169460A20ABBE1CBD704708B5E5
:1005D000694600900C20ABBE08BD754600F018F9C6
:1005E000AE4605006946534620F00700854618B020
:1005F00020B5FFF7E3FDBDE820404FF000064FF0C7
:1006000000074FF000084FF0000B21F00701AC4647
:10061000ACE8C009ACE8C009ACE8C009ACE8C00966
:100620008D46704770B50446051F00F0F7F8006866
:10063000002C14BF446870BD002C18BFAC423CBFF6
:1006400020466468F8D301680A18AA4218BF4560BA
:1006500003D12A6805461144016028684119A14266
:100660001CBF6C6070BD61686960216808442860C7
:1006700070BD70B5C468A50713D0650211D4B2F57A
:10068000807F09D0B2F5007F06D0B2F5806F08D127
:10069000012300F1240106E05D1E6FF07F46B542A4
:1006A00001D3012070BD0161C361416024F4706118
:1006B0001143C160002070BD2DE9F0410C46074692
:1006C0001646104600F06EF82078611C61280AD0AA
:1006D000722802D077283CD102E00125002405E0F1
:1006E0000225042402E0082448F2020511F8010B57
:1006F0002B2806D0622809D011F8010C74280AD0E2
:100700000BE045F0030544F00204EFE745F0040573
:1007100044F00104EAE744F0100438462146FFF7AC
:1007200029FF411C15D00021316171604FF4007127
:10073000F560F1617061200704D530460222002186
:1007400000F0E6F8306D40F0010030653046BDE85D
:10075000F0810020FBE72DE9F0410D460646104CE4
:10076000206DC10704D0410804D020F00104F7E750
:1007700022460EE0542000F09CF807000ED0206DB9
:1007800047F001010843542120653846FFF7A4FDD6
:100790003A4629463046BDE8F0418DE70020D6E7CD
:1007A0001C0100202DE9F04704464FF000094FF0EE
:1007B000FF37C568D4E90486A80707D0204600F0B3
:1007C00057F93046FFF7E0FE002802DA3846BDE868
:1007D000F087280502D54046FFF724FF4C2120462C
:1007E000FFF77AFD206D20F0010020654846EEE716
:1007F00010B50446AFF300802046BDE81040FFF777
:10080000C9BC10B500F07EF9BDE8104000F074B925
:1008100000487047180200207047000000487047E9
:1008200020020020704770477047704738B5044673
:100830000A4600206946AFF30080002808BF38BD93
:1008400002460099204600F0A4F9012038BD01209D
:1008500000F0F3B9F8B5AFF30080054600200C4670
:10086000102000BF0646A819A0420DD9324669469D
:100870000020AFF30080070008BF00F0DEF9009809
:10088000A04218BF0546C419FFF7C8FF0560074618
:10089000F01D20F007004619284600F073F9B44215
:1008A00008BFF8BDA21B31463868BDE8F84000F02B
:1008B00070B970B50646FFF7B1FF056806F10B0089
:1008C00020F00704B4429CBF002070BD2B466A682C
:1008D000BAB11068A04210D304F1080188423CBFAD
:1008E0005068586007D35168101941601168091B9E
:1008F000016058601460101D70BD13465268002AD4
:10090000E7D121462846FFF791FF0028DED170BDD0
:100910002DE9F041044616460D464769007B8007E5
:100920002ED03846FFF745FE50BB3EB3012E02D015
:10093000022E25D104E0204600F045F905441DE0D3
:100940003846FFF744FEE168002841F01001E160FD
:1009500005DA204600F058F80120BDE8F081C9030F
:100960000BD56268E16A914200D81146A269114430
:100970002269891A814200DD08460544002D01DA0A
:100980000220EAE7E16A6068E268814206D29103E8
:10099000E06203D522F4003141F01002A66900277D
:1009A000AE4213DCE16A814201D90B4600E0034606
:1009B00003EB060C2369ACEB030CAC4506DD81426E
:1009C00001D98C4600E084469C4505D1A76027608C
:1009D00042F02000A5620DE0AD1BE669AE1B81422E
:1009E000A66000D90846C01A281A2060581960600D
:1009F00022F0200003490840E060002084F848709D
:100A0000ABE70000BFCFD7FFC16821F4001141F070
:100A10008001C16000218160016070472DE9F047CD
:100A2000814614460E464FF0FF383248D568576964
:100A3000054209D03846A169FFF7C1FD002811DB46
:100A40002C48C0430540E5602B46324649463846AF
:100A5000FFF7A0FDA16920F00042B21A114400285E
:100A6000A16103D02046FFF7CFFF4046BDE8F087E5
:100A700070B504460569C06A6168884200D80846B6
:100A8000E16821F42011E160C90312D5A84208D021
:100A90002246411B2846FFF7C1FF10B14FF0FF303F
:100AA00070BD0020E562C4E90150E06820F48030A8
:100AB000E060002070BD10B50446C06820F0200042
:100AC000E060A16AA06988420DD02046FFF7D0FF00
:100AD000E06820F4405040F01000E060A06AA0619F
:100AE0002069E062606044F24001E0688843E060B1
:100AF00010BD000010000200002801D000F03CB83A
:100B00007047000010B5014602A000F07DF80120FA
:100B100010BD000053494752545245443A20526593
:100B20006469726563743A2063616E2774206F7024
:100B3000656E3A200000000010B5431C02E010F87A
:100B4000011B71B18107FAD14FF0013202C88C1A32
:100B50008C4314EAC211F9D0C01A0A0603D0C01E91
:100B600010BDC01A10BD0A0401D0801E10BD0902BC
:100B7000FCD0401E10BD000001491820ABBEFEE7AE
:100B80002600020000210160C0E90110704710201A
:100B90007047034640688C46002818BF88423CBF17
:100BA00003464068F8D318681844884207D00CF10F
:100BB000030020F00700001D411A521A0146081DCB
:100BC0000A60FFF72FBD10B50146C268900703D039
:100BD000900607D5886A0AE000F03EF8012101601E
:100BE000881E10BD8B69486818440B69C01A91F8BB
:100BF00048301BB191F84910401A10BD1103FCD5C3
:100C00000028FADD401E10BD70B505460C460A20CE
:100C100000E06D1C00F018F835B128780028F8D1F4
:100C200002E0641C00F010F814B120780028F8D11C
:100C3000BDE870400A2000F007B810B500F010F8C9
:100C4000BDE81040FFF758BF08B569468DF80000B1
:100C50000320ABBE08BD000000487047180200200A
:100C600010B5012805D0002103A0FFF7CDFF01201A
:100C700010BD09A1F8E7000053494752544D454DB6
:100C80003A204F7574206F662068656170206D652D
:100C90006D6F7279000000003A2048656170206D28
:100CA000656D6F727920636F727275707465640020
:100CB000017C491C01744178C1F3800111B1012903
:100CC00018D10BE0017C012902D10122427404E019
:100CD000017C022901DB002101740BE0017C032966
:100CE00002D10122427404E0017C042901D10021D7
:100CF000017400BF00BF70470146487C012801D144
:100D000000207047FF20FCE738B504460020009023
:100D100000251021204601F0A5FFE068642303228E
:100D2000694600F095FE9DF802009DF8011040EA2A
:100D30000125284638BD00BFFEE7704710B50648BC
:100D4000006800F0020010B10448FFF7B1FF022074
:100D500000F00AF810BD000014040140000000205B
:100D600072B600BFFEE7704710B50446044800683D
:100D7000204020B1024804602046FFF7F4FF10BD78
:100D8000140401402DE9F8470346002294466EE121
:100D90004FF0010808FA02F4D1F8008008EA0400D4
:100DA000A0427DD1DFF8DCA2D1F80480A8EB0A09CB
:100DB000D0453AD014DCB8F1030F50D009DCB8F1BB
:100DC000000F31D0B8F1010F1CD0B8F1020F49D19A
:100DD00020E0B8F1110F18D0B8F1120F42D11EE087
:100DE000B9F5881F25D006DCB9F5803F20D0B9F5CC
:100DF000801F37D11AE0B9F5001F18D0B9F5041FCC
:100E000030D117E0D1F80CC02DE0D1F80C8008F1FA
:100E1000040C28E0D1F80C8008F1080C23E0D1F88C
:100E20000C8008F10C0C1EE000BF00BF00BF00BF2B
:100E300000BF00BFD1F80880B8F1000F02D14FF019
:100E4000040C0BE0D1F80880B8F1010F03D14FF08A
:100E5000080C1C6102E04FF0080C5C6103E04FF0ED
:100E6000000C00E000BF00BFFF2801D8984601E059
:100E700003F104084646FF2802D84FEA820803E03F
:100E8000A2F108084FEA88084746D6F800804FF0DC
:100E90000F0909FA07F928EA09080CFA07F900E02E
:100EA00088E048EA0908C6F80080D1F8048008F014
:100EB0008058B8F1805F7DD100BFDFF8CC81D8F8D1
:100EC000188048F00108DFF8C091C9F81880C846BA
:100ED000D8F8188008F00108CDF8008000BF00BFE6
:100EE0004FEAB9384FEA920958F829504FEA827808
:100EF0004FEA18794FF00F0808FA09F825EA0805B3
:100F0000DFF88881434502D14FF0000816E0DFF892
:100F10008081434502D14FF001080FE0DFF8748172
:100F2000434502D14FF0020808E0DFF86C814345E9
:100F300002D14FF0030801E04FF004084FEA827934
:100F40004FEA197908FA09F848EA0505DFF84C81F3
:100F50004FEA920948F82950D1F8048008F4801823
:100F6000B8F5801F0AD1DFF83881D8F8008048EA48
:100F70000008DFF82C91C9F8008009E0DFF8208133
:100F8000D8F8008028EA0008DFF81491C9F800803A
:100F9000D1F8048008F40018B8F5001F10D1DFF86C
:100FA000008108F10408D8F8008048EA0008DFF85A
:100FB000F09000E05AE009F10409C9F800800DE062
:100FC000DFF8DC8008F10408D8F8008028EA00087F
:100FD000DFF8CC9009F10409C9F80080D1F8048049
:100FE00008F40038B8F5003F0ED1DFF8B480A8F15E
:100FF0000408D8F8008048EA0008DFF8A490A9F1B6
:101000000409C9F800800DE0DFF89480A8F1040815
:10101000D8F8008028EA0008DFF88490A9F10409D4
:10102000C9F80080D1F8048008F48038B8F5803F12
:101030000ED1DFF86C80A8F10808D8F8008048EAE3
:101040000008DFF85C90A9F10809C9F800800DE0FC
:10105000DFF84C80A8F10808D8F8008028EA0008DA
:10106000DFF83C90A9F10809C9F80080521CD1F8BA
:10107000008028FA02F8B8F1000F7FF489AEBDE8CD
:10108000F887000000001110001002400008014025
:10109000000C014000100140001401400800014014
:1010A000080401400AB1016101E00B0403617047CB
:1010B00001480068704700001800002003480068DD
:1010C0000349097808440149086070471800002066
:1010D0002000002010B50848006840F010000649C4
:1010E0000860032000F0A8F80F2000F007F800F0D7
:1010F0002BF8002010BD00000020024070B504460F
:101100000E4800784FF47A71B1FBF0F00C49096891
:10111000B1FBF0F5284600F05FFF08B1012070BD7B
:10112000102C07D200222146501E00F047F8054837
:10113000046001E00120F2E70020F0E72000002039
:10114000240000201C00002008B500BF1148806961
:1011500040F001000F4988610846806900F00100F5
:10116000009000BF00BF00BF0846C06940F080503B
:10117000C8610846C06900F08050009000BF00BF01
:1011800000BF0549486820F0E06040F0007048600A
:1011900000BF08BD001002400000014001460846A3
:1011A000002809DB00F01F0301229A4043099B003D
:1011B00003F1E023C3F8002100BF70472DE9F05F81
:1011C00080460D461646002701F058FD0746394671
:1011D0002A46334601F00700C0F1070ABAF1040FAE
:1011E00002D94FF0040A01E0C0F1070AD14600F12C
:1011F000040ABAF1070F02D24FF0000A01E0A0F191
:10120000030AD4464FF0010A0AFA09FAAAF1010AC0
:101210000AEA020A0AFA0CFA4FF0010B0BFA0CFB6D
:10122000ABF1010B0BEA030B4AEA0B0421464046E3
:1012300001F02CFDBDE8F09F00BF00F00702064B57
:1012400019684FF6FF031940044B0B4343EA022190
:10125000014B196000BF70470CED00E00000FA057B
:1012600070B504460D460CB9012070BD5A4800689F
:1012700000F00700A8420ED25748006820F007008F
:101280002843554908600846006800F00700A84256
:1012900001D00120E9E7207800F0020002281DD1EA
:1012A000207800F00400042805D14C48406840F440
:1012B000E0604A494860207800F00800082805D11D
:1012C0004648406840F4605044494860434840689C
:1012D00020F0F000A168084340494860207800F001
:1012E000010078B36068012806D13C48006800F42A
:1012F000003090B90120B8E76068022806D137486D
:10130000006800F0007040B90120AEE73348006883
:1013100000F0020008B90120A7E73048406820F03B
:101320000300616808432D494860FFF7C1FE064687
:1013300009E0FFF7BDFE801B41F28831884202D9E7
:10134000032092E707E02548406800F00C00616840
:10135000B0EB810FEDD12048006800F00700A842F3
:101360000ED91D48006820F0070028431A4908607C
:101370000846006800F00700A84201D0012074E789
:10138000207800F00400042807D11448406820F4B5
:10139000E060E168084311494860207800F00800E7
:1013A000082808D10D48406820F46050216940EABF
:1013B000C1000A49486000F03FF808494968C1F394
:1013C0000311074A515CC840064908600648006896
:1013D000FFF794FE002048E7002002400010024082
:1013E000422D0008240000201C0000200148006855
:1013F000704700002400002000B5FFF7F7FF044904
:101400004968C1F30221034A515CC84000BD000095
:1014100000100240522D000800B5FFF7E7FF044915
:101420004968C1F3C221034A515CC84000BD0000B5
:1014300000100240522D000870B500210022002447
:1014400000230020134D696801F00C05F5B1042D4F
:1014500002D0082D19D101E00F4819E00F4DC1F35A
:101460008346AB5D01F4803555B10A4D6D68C5F317
:1014700040450B4E725D084D5D43B5FBF2F402E052
:10148000084D03FB05F4204602E000BF024800BF00
:1014900000BF70BD0010024000127A00302D00081D
:1014A000402D000800093D00F8B504460CB90120A4
:1014B000F8BD207800F00100002878D0F848406896
:1014C00000F00C0004280CD0F548406800F00C0037
:1014D000082811D1F248406800F48030B0F5803F10
:1014E0000AD1EF48006800F4003000285FD060683F
:1014F00000285CD10120DBE700BF6068B0F5803FC9
:1015000006D1E748006840F48030E549086028E0EB
:10151000606858B9E248006820F48030E04908600B
:101520000846006820F4802008601AE06068B0F582
:10153000A02F0BD1DA48006840F48020D849086019
:101540000846006840F4803008600AE0D44800682B
:1015500020F48030D24908600846006820F48020DA
:10156000086000BF606888B1FFF7A2FD054606E08D
:10157000FFF79EFD401B642801D9032098E7C84867
:10158000006800F400300028F2D010E0FFF790FD72
:10159000054606E0FFF78CFD401B642801D90320B7
:1015A00086E7BF48006800F400300028F2D12078B8
:1015B00000F00200022857D1B948406800F00C0042
:1015C00050B1B748406800F00C00082818D1B44862
:1015D000406800F4803098B9B148006800F002001B
:1015E00020B12069012801D0012061E7AC480068E2
:1015F00020F0F800616940EAC100A949086033E0C1
:101600002069E8B10120A7490860FFF751FD0546B0
:1016100006E0FFF74DFD401B022801D9032047E7F4
:101620009F48006800F002000028F2D09C48006843
:1016300020F0F800616940EAC1009949086013E0B0
:10164000002098490860FFF733FD054606E0FFF7E4
:101650002FFD401B022801D9032029E7904800688C
:1016600000F002000028F2D1207800F008000828DD
:101670002DD1A069B8B101208B490860FFF718FD92
:10168000054606E0FFF714FD401B022801D90320A0
:101690000EE78348406A00F002000028F2D00120E3
:1016A00001F046F813E000207F490860FFF700FDD5
:1016B000054606E0FFF7FCFC401B022801D9032089
:1016C000F6E67748406A00F002000028F2D1207860
:1016D00000F00400042873D100277148C06900F0AD
:1016E000805070B900BF6E48C06940F080506C49AE
:1016F000C8610846C06900F08050009000BF00BF7C
:1017000001276A48006800F48070B0B96748006833
:1017100040F4807065490860FFF7CAFC054606E0A2
:10172000FFF7C6FC401B642801D90320C0E65F48D0
:10173000006800F480700028F2D000BFE068012843
:1017400006D15748006A40F001005549086227E079
:10175000E06858B95248006A20F001005049086218
:101760000846006A20F00400086219E0E0680528D5
:101770000BD14B48006A40F0040049490862084612
:10178000006A40F0010008620AE04548006A20F063
:101790000100434908620846006A20F0040008621C
:1017A00000BFE068A0B1FFF783FC054609E0FFF742
:1017B0007FFC401B41F28831884202D9032077E642
:1017C00022E03748006A00F002000028EFD012E063
:1017D000FFF76EFC054608E0FFF76AFC401B41F28C
:1017E0008831884201D9032062E62D48006A00F062
:1017F00002000028F0D1012F05D12948C06920F04E
:1018000080502749C86100BFE069C8B324484068D8
:1018100000F00C00082860D0E069022848D10020C0
:1018200020490866FFF744FC054606E0FFF740FC48
:10183000401B022801D903203AE61948006800F04D
:1018400000700028F2D1206AB0F5803F07D114481B
:10185000406820F40030A168084311494860D4E989
:10186000080108430E49496821F4741108430C49E2
:10187000486001200B490866FFF71AFC054607E09F
:101880003DE0FFF715FC401B022801D903200FE6BD
:101890000348006800F000700028F2D02FE000003C
:1018A00000100240000042428004424200700040AA
:1018B000002014490866FFF7FBFB054606E0FFF72A
:1018C000F7FB401B022801D90320F1E50E48006810
:1018D00000F000700028F2D111E0E069012800D189
:1018E000E6E50948466806F48031206A814204D161
:1018F00006F47011606A814201D00120D8E5002011
:10190000D6E50000000042420010024010B5044637
:101910000CB9012010BD606A38B96068B0F5827FEB
:1019200000D105E00021E16102E000212161616157
:101930000021A16294F8510028B9002084F85000D9
:10194000204600F043F8022084F851002068006827
:1019500020F0400021680860A08800F4827021898E
:1019600001F404410843A18901F400610843217C8A
:1019700001F002010843217D01F001010843218BA0
:1019800001F400710843217F01F038010843202150
:10199000095D01F080010843218D01F400510843E5
:1019A000216808600421A06901EA104021684860AC
:1019B0002068C06920F400602168C861002060656B
:1019C000012084F851000020A4E7000010B586B083
:1019D0000446002002900390049005901949206865
:1019E00088422DD100BF1848806940F480501649C4
:1019F00088610846806900F48050019000BF00BFF4
:101A000000BF0846806940F004008861084680698C
:101A100000F00400019000BF00BFA020029002204F
:101A200003900320059002A90848FFF7ABF9402076
:101A3000029000200390049002A90448FFF7A2F945
:101A400006B010BD00300140001002400008014007
:101A50002DE9F8430446884616461D4694F8510081
:101A6000012802D00220BDE8F8836068B0F5827FCB
:101A70000CD1A06850B9042084F851003346424686
:101A800041462046009500F083F9ECE7FFF710FB94
:101A90000746B8F1000F00D00EB90120E3E700BF00
:101AA00094F85000012801D10220DCE7012084F8DD
:101AB000500000BF042084F8510000206065C4F885
:101AC0003880A687E6872063A086E086206460646D
:101AD000A068B0F5004F0BD12068006820F04000EE
:101AE000216808602068006820F480402168086050
:101AF0002068006800F04000402805D02068006899
:101B000040F0400021680860E06830BB21E02068B8
:101B1000806800F0010050B12068007BA16B087064
:101B2000A06B401CA063E08F401EE08711E0FFF730
:101B3000BFFAC01BA84201D3681C00B94DB90120EF
:101B400084F8510000BF002084F8500000BF03203B
:101B500089E7E08F0028DAD125E021E0206880685D
:101B600000F0010050B12068C068A16B0880A06B34
:101B7000801CA063E08F401EE08711E0FFF798FA19
:101B8000C01BA84201D3681C00B94DB9012084F8DC
:101B9000510000BF002084F8500000BF032062E71E
:101BA000E08F0028DAD13A462946204600F0D4FDDD
:101BB00008B120206065012084F8510000BF00209A
:101BC00084F8500000BF606D08B101204BE7002091
:101BD00049E72DE9F84304460F4616461D46FFF730
:101BE00067FA8046B14694F85100012802D00220DD
:101BF000BDE8F88307B10EB90120F9E700BF94F8FA
:101C00005000012801D10220F2E7012084F85000A1
:101C100000BF032084F85100002060652763A6867A
:101C2000E686A063A087E08760642064A068B0F5C2
:101C3000004F0BD12068006820F040002168086048
:101C40002068006840F480402168086020680068CF
:101C500000F04000402805D02068006840F04000B7
:101C600021680860E068B0F5006F37D1606810B196
:101C7000B9F1010F09D1206B00882168C860206B81
:101C8000801C2063E08E401EE08623E02068806890
:101C900000F0020002280AD1206B00882168C86089
:101CA000206B801C2063E08E401EE08612E0FFF770
:101CB000FFF9A0EB0800A84201D3681C00B94DB998
:101CC000012084F8510000BF002084F8500000BFBC
:101CD00003208DE7E08E0028D8D136E0606810B18F
:101CE000B9F1010F09D1206B007821680873206BCE
:101CF000401C2063E08E401EE08623E02068806860
:101D000000F0020002280AD1206B007821680873D5
:101D1000206B401C2063E08E401EE08612E0FFF73F
:101D2000C7F9A0EB0800A84201D3681C00B94DB95F
:101D3000012084F8510000BF002084F8500000BF4B
:101D4000032055E7E08E0028D8D142462946204698
:101D500000F03EFD08B120206065A06850B900BFCA
:101D6000002000902068C068009020688068009083
:101D700000BF00BF012084F8510000BF002084F89C
:101D8000500000BF606D08B1012031E700202FE74F
:101D90002DE9FE4F04460F4690461D460C9E01203D
:101DA0000190FFF785F9814694F851B06068029080
:101DB000AA46BBF1010F0BD00298B0F5827F04D187
:101DC000A06810B9BBF1040F02D00220BDE8FE8F5D
:101DD0001FB1B8F1000F00D00DB90120F6E700BF28
:101DE00094F85000012801D10220EFE7012084F887
:101DF000500000BF94F85100042802D0052084F858
:101E0000510000206065C4F83880E587A587276306
:101E1000E586A586206460642068006800F04000C4
:101E2000402805D02068006840F040002168086024
:101E3000E068B0F5006F52D1606810B1BAF1010FDF
:101E400009D1206B00882168C860206B801C20634A
:101E5000E08E401EE0863BE02068806800F00200D3
:101E6000022810D1E08E70B1019801280BD1206BAF
:101E700000882168C860206B801C2063E08E401EB3
:101E8000E086002001902068806800F0010068B1C1
:101E9000E08F58B12068C068A16B0880A06B801CDF
:101EA000A063E08F401EE08701200190FFF700F95A
:101EB000A0EB0900B0420BD3701C48B1012084F89C
:101EC000510000BF002084F8500000BF03207DE7D0
:101ED000E08E0028C0D1E08F0028BDD152E06068BC
:101EE00010B1BAF1010F09D1206B00782168087395
:101EF000206B401C2063E08E401EE0863CE02068A2
:101F0000806800F00200022810D1E08E70B10198C4
:101F100001280BD1206B007821680873206B401CCE
:101F20002063E08E401EE0860020019020688068DB
:101F300000F0010068B1E08F58B12068C068A16B63
:101F40000870A06B401CA063E08F401EE08701205A
:101F50000190FFF7ADF8A0EB0900B04201D3701C6F
:101F600000B94EB9012084F8510000BF002084F868
:101F7000500000BF032029E7E08E0028BFD1E08F8A
:101F80000028BCD14A463146204600F021FC40B131
:101F90002020606500BF002084F8500000BF0120B1
:101FA00014E7A06850B900BF002000902068C06806
:101FB000009020688068009000BF00BF012084F876
:101FC000510000BF002084F8500000BF606D08B1D0
:101FD0000120FBE60020F9E670B504462546681EA0
:101FE000B0F1807F01D301200FE0681E4FF0E021A7
:101FF00048610F214FF0FF3000F048FE00204FF005
:10200000E021886107200861002070BD704770479B
:1020100030B502460B4600BF92F83C00012801D1C2
:10202000022030BD012082F83C0000BF022082F86F
:102030003D00106844681068816824F070041868D6
:10204000044310684460104D1068A8420BD010681B
:10205000B0F1804F07D00D4D1068A84203D00C4D51
:102060001068A84205D121F080015868014310682A
:102070008160012082F83D0000BF002082F83C0012
:1020800000BF00BFCDE70000002C0140000400406D
:102090000008004010B504460CB9012010BD94F8AA
:1020A0003D0028B9002084F83C00204600F026F8C6
:1020B000022084F83D00211D206800F059FC012019
:1020C00084F8460000BF84F83E0001213F200155FE
:1020D000402001554120015500BF00BF012084F878
:1020E000420043200155442001554520015500BFC1
:1020F000012084F83D000020D0E7000038B50446F8
:102100000D492068884215D100BF0C48806940F411
:1021100000600A4988610846806900F40060009008
:1021200000BF00BF002201211920FFF747F8192046
:10213000FFF734F838BD0000002C014000100240C9
:102140002DE9F04104460D46002700BF94F83C00FD
:10215000012802D10220BDE8F081012084F83C0072
:1021600000BF022084F83D002068866826F07706CC
:1021700026F47F46206886602868502833D00CDC1F
:10218000202850D004DC00284BD0102851D149E041
:10219000302849D040284CD139E060282DD0702813
:1021A00007D0B0F5805F03D0B0F5005F41D10DE0FE
:1021B00041E0D5E902136A68206800F01BFC206842
:1021C000866846F077062068866034E0D5E9021319
:1021D0006A68206800F00EFC2068806840F4804047
:1021E0002168886027E0EA686968206800F016FCCA
:1021F0005021206800F009FC1DE0EA686968206849
:1022000000F01FFC6021206800F0FFFB13E0EA688B
:102210006968206800F002FC4021206800F0F5FBAE
:1022200009E000BF00BF00BF2968206800F0EDFB97
:1022300001E0012700BF00BF012084F83D0000BF7E
:10224000002084F83C0000BF384684E7704770B532
:1022500004462068C5682068066906F00200022866
:1022600019D105F00200022815D1401F216808612C
:10227000012020772068806900F0030018B1204613
:10228000FFF7E4FF05E0204600F097F8204600F055
:1022900095F80020207706F00400042819D105F0F5
:1022A0000400042815D1C04321680861022020776A
:1022B0002068806900F4407018B12046FFF7C6FF1F
:1022C00005E0204600F079F8204600F077F800207D
:1022D000207706F00800082819D105F00800082822
:1022E00015D1C04321680861042020772068C069A7
:1022F00000F0030018B12046FFF7A8FF05E02046D4
:1023000000F05BF8204600F059F80020207706F036
:102310001000102819D105F01000102815D1C04365
:1023200021680861082020772068C06900F44070A7
:1023300018B12046FFF78AFF05E0204600F03DF87F
:10234000204600F03BF80020207706F0010048B15D
:1023500005F0010030B16FF00100216808612046EE
:1023600000F02DF806F08000802809D105F08000EB
:10237000802805D1C043216808612046FFF746FE4A
:1023800006F04000402809D105F04000402805D162
:10239000C04321680861204600F012F806F02000D2
:1023A000202809D105F02000202805D1C04321684C
:1023B00008612046FFF72BFE70BD704770477047DD
:1023C000704710B504460CB9012010BDA06900B1DA
:1023D00000E000BF94F8410028B9002084F84000D4
:1023E000204600F029F8242084F841002068C068C5
:1023F00020F400502168C860204600F06DFB206882
:10240000006920F49040216808612068406920F04C
:102410002A00216848612068C06840F400502168A3
:10242000C86000206064202084F8410084F84200E5
:102430000020606300BFC8E710B586B004460020E6
:1024400002900390049005901A49206888422ED18A
:1024500000BF1948806940F48040174988610846E8
:10246000806900F48040019000BF00BF00BF0846B3
:10247000806940F0040088610846806900F004002B
:10248000019000BF00BF4815029002200390032076
:10249000059002A90948FEF775FC4FF48060029090
:1024A00000200390049002A90448FEF76BFC06B0DC
:1024B00010BD00000038014000100240000801403B
:1024C0002DE9F84F04460E46174699464FF0000A8C
:1024D00094F84100202850D106B117B90120BDE879
:1024E000F88F00206064212084F84100FEF7E0FDB1
:1024F0008246A784E784A068B0F5805F04D1206994
:1025000010B90025B04602E035464FF000081EE045
:102510005346002280212046CDF8009000F05AFB5F
:1025200020B1202084F841000320D8E745B9B8F84D
:102530000000C0F308002168486008F1020803E0C9
:102540002878216848606D1CE08C401EE084E08C97
:102550000028DDD15346002240212046CDF80090CE
:1025600000F038FB20B1202084F841000320B6E7BA
:10257000202084F841000020B1E70220AFE700BF2F
:10258000FEE7000000B585B00020019002900390A6
:10259000049000BF2548806940F0200023498861ED
:1025A0000846806900F02000009000BF00BF00BF17
:1025B0000846806940F0040088610846806900F0A0
:1025C0000400009000BF00BF00BF0846806940F0D3
:1025D000080088610846806900F00800009000BF8C
:1025E00000BF002201211248FEF75CFD012001908E
:1025F0000290002003900220049001A90C48FEF7ED
:10260000C1FB022001900B4802900020039001A919
:102610000748FEF7B7FB002211460720FEF7CEFD64
:102620000720FEF7BBFD05B000BD00000010024012
:10263000000C01400000111010B50E480E49086052
:102640004FF48270486000210B488160C1600161D5
:1026500001214161490281611821C16100210162AA
:10266000416281620A21C162FFF750F908B1FEF7A9
:1026700077FB10BD003001403400002000B587B06A
:102680000020039004900590069001900290154858
:10269000154908604720486000211348816040F2D6
:1026A000E731C1600021016141618161FFF7F2FC06
:1026B00008B1FEF755FB4FF48050039003A90A4878
:1026C000FFF73EFD08B1FEF74BFB002001900290A2
:1026D00001A90548FFF79CFC08B1FEF741FB07B0D4
:1026E00000BD0000002C01408C00002010B50B48FC
:1026F0000B4908604FF4E1304860002108488160D0
:10270000C16001610C21416100218161C161FFF75C
:1027100058FE08B1FEF724FB10BD00000038014050
:10272000D400002000BFFEE700BFFEE770470000B6
:1027300008B508490968C9084FF47A72B1FBF2F18B
:102740004143009100BF00BF00994A1E009200293A
:10275000F9D108BD24000020F8B504460E46154600
:102760006068B0F5827F0DD1A068B0F5004F03D04E
:10277000A068B0F5806F05D12068006820F04000A7
:10278000216808606068B0F5827F11D1A068B0F55B
:10279000806F0DD13346002201212046009500F0C4
:1027A00039F898B1606D40F0200060650320F8BDF5
:1027B0003346002280212046009500F02BF828B1F6
:1027C000606D40F0200060650320F0E70020EEE738
:1027D000F8B504460E46154633460122022120462E
:1027E000009500F017F828B1606D40F0200060659A
:1027F0000320F8BD3346002280212046009500F0DA
:1028000009F828B1606D40F0200060650320F0E712
:102810000020EEE72DE9F84F04460D4690461E468F
:10282000DDF82890FEF744FCA0EB0900371AFEF70C
:102830003FFC82462C480068C0F3CB3078430090C0
:1028400045E0701C002842D0FEF732FCA0EB0A00E5
:10285000B84200D2A7BB2068406820F0E0002168A1
:1028600048606068B0F5827F0DD1A068B0F5004F78
:1028700003D0A068B0F5806F05D12068006820F013
:10288000400021680860A06AB0F5005F0DD100BF6C
:102890002068006820F40050216808602068006803
:1028A00040F400502168086000BF012084F8510006
:1028B00000BF002084F8500000BF0320BDE8F88F5F
:1028C000FFE7009800B900270098401E009020689C
:1028D00080682840A84201D1012000E00020404546
:1028E000AFD10020EAE7000024000020704710B5B7
:1028F000FEF7E4FB10BD00B58FB0282105A8FDF759
:10290000EBFC14216846FDF7E7FC0120059000046C
:102910000690002007900120099002200C90C1032E
:102920000D914FF4E0110E9105A8FEF7BDFD08B121
:10293000FEF716FA0F20009002200190002002906E
:102940004FF4806003900020049002216846FEF757
:1029500087FC08B1FEF704FA0FB000BD7047000015
:1029600010B50248FFF773FC10BD00008C0000207A
:1029700010B502681C4B984208D0B0F1804F05D0CA
:102980001A4B984202D01A4B984203D122F070029F
:102990004B681A43144B984208D0B0F1804F05D0D1
:1029A000124B984202D0124B984203D122F440724B
:1029B000CB681A4322F080034C6943EA04020260A8
:1029C0008B68C3620B688362074B984201D10B6925
:1029D000036301234361036903F001031BB103692E
:1029E00023F00103036110BD002C014000040040EE
:1029F0000008004030B50C46816821F47F4142EA6E
:102A0000032525432943816030BD0A46816821F0B2
:102A1000700142F0070319438160704730B50B46DF
:102A20001446026A056A25F001050562816921F0F4
:102A3000F00141EA041122F00A021A4381610262A4
:102A400030BD30B50B461446026A056A25F0100504
:102A50000562816921F4704141EA043122F0A0024B
:102A600042EA03128161026230BD00BF00BF02680A
:102A70000C3252E8002F22F4907102680C3242E8C6
:102A80000013002BF3D100BF00BF00BF0268143257
:102A900052E8002F22F001010268143242E80013CC
:102AA000002BF3D100BF016B01290ED100BF00BF85
:102AB00002680C3252E8002F22F0100102680C323A
:102AC00042E80013002BF3D100BF202180F8421010
:102AD000002101637047000070B504462168096950
:102AE00021F44051E2681143226811612269A16812
:102AF0001143626941EA02052168C96841F20C622A
:102B0000914329432268D1602168496921F44071C9
:102B1000A2691143226851612D4A2168914202D174
:102B2000FEF77AFC01E0FEF767FC00EBC00101EB69
:102B3000001162689200B1FBF2F100EBC00202EBFF
:102B4000001263689B00B2FBF3F26423B2FBF3F262
:102B500002EBC20303EB0212A1EB8201322202EB71
:102B600001116422B1FBF2F101F0F00100EBC002AF
:102B700002EB001263689B00B2FBF3F26423B2FB2A
:102B8000F3F201EB021200EBC00101EB00116368EC
:102B90009B00B1FBF3F100EBC00303EB001366688D
:102BA000B600B3FBF6F36426B3FBF6F303EBC30600
:102BB00006EB0313A1EB8301322303EB0111642322
:102BC000B1FBF3F101F00F0111442268916070BD77
:102BD000003801402DE9F84304460D461746984653
:102BE000089E31E0701C70B3FEF762FAA0EB08009B
:102BF000B04200D816B90320BDE8F8832068C06849
:102C000000F00400F8B1802D1ED0402D1CD02068AB
:102C10000068C0F3C000B0B100BF00200090206881
:102C20000068009020684068009000BF00BF204608
:102C3000FFF71BFF0820606400BF002084F84000FD
:102C400000BF0120D8E7FFE7206800682840A842BD
:102C500001D1012000E00020B842C3D00020CBE722
:102C600000BFFEE738B504460D460095E0686423D2
:102C700001226946FEF7ADFF38BD0000024800683A
:102C8000C0F30220704700000CED00E010B50028F2
:102C900004DB0A07130E054A135406E00A07140E54
:102CA000034A00F00F031B1FD45410BD00E400E0E2
:102CB00018ED00E013B50C464FF6FF73012269468C
:102CC0000648FFF7FDFB00BF044800680068C0F33A
:102CD00080100028F8D000981CBD0000D40000200F
:102CE000FEF7F8F9FFF707FEFFF74CFCFFF7A4FC2F
:102CF000FFF7C4FCFFF7FAFC0BE00648FDF7FCFF0A
:102D000038B90448FEF700F80348018803A0FDF72E
:102D100067FAF2E70000002014000020414453311C
:102D200031323020414443203A2025640000000025
:102D300002030405060708090A0B0C0D0E0F1010FC
:102D40000102000000000000000001020304060769
:102D5000080900000000010203043A7474003A7488
:102D600074003A7474000000882D000800000020F0
:102D70003400000028010008BC2D000834000020A9
:102D8000440800004401000800010500000C014057
:102D900001000000340000200000000000000000DE
:102DA00000000000100000000100000000127A0086
:0C2DB00000000000000000000000000017
:04000005080000ED02
:00000001FF
